{
  "_format": "hh-sol-artifact-1",
  "contractName": "Inshrance",
  "sourceName": "contracts/Inshrance.sol",
  "abi": [
    {
      "inputs": [],
      "stateMutability": "nonpayable",
      "type": "constructor"
    },
    {
      "anonymous": false,
      "inputs": [
        {
          "indexed": false,
          "internalType": "string",
          "name": "characterization",
          "type": "string"
        },
        {
          "indexed": false,
          "internalType": "uint256",
          "name": "assetHash",
          "type": "uint256"
        }
      ],
      "name": "Approved",
      "type": "event"
    },
    {
      "anonymous": false,
      "inputs": [
        {
          "indexed": false,
          "internalType": "string",
          "name": "characterization",
          "type": "string"
        },
        {
          "indexed": false,
          "internalType": "uint256",
          "name": "assetHash",
          "type": "uint256"
        }
      ],
      "name": "NewApply",
      "type": "event"
    },
    {
      "anonymous": false,
      "inputs": [
        {
          "indexed": false,
          "internalType": "string",
          "name": "characterization",
          "type": "string"
        },
        {
          "indexed": false,
          "internalType": "uint256",
          "name": "assetHash",
          "type": "uint256"
        }
      ],
      "name": "NotApproved",
      "type": "event"
    },
    {
      "inputs": [
        {
          "internalType": "string",
          "name": "_characterization",
          "type": "string"
        },
        {
          "internalType": "uint256",
          "name": "_assetId",
          "type": "uint256"
        },
        {
          "internalType": "uint256",
          "name": "_value",
          "type": "uint256"
        }
      ],
      "name": "applyInsurance",
      "outputs": [],
      "stateMutability": "payable",
      "type": "function"
    },
    {
      "inputs": [
        {
          "internalType": "string",
          "name": "_characterization",
          "type": "string"
        },
        {
          "internalType": "uint256",
          "name": "_assetId",
          "type": "uint256"
        },
        {
          "internalType": "uint256",
          "name": "_value",
          "type": "uint256"
        }
      ],
      "name": "applyOfDisadvantagedIndividuals",
      "outputs": [],
      "stateMutability": "nonpayable",
      "type": "function"
    },
    {
      "inputs": [
        {
          "internalType": "uint256",
          "name": "",
          "type": "uint256"
        }
      ],
      "name": "assetToOwner",
      "outputs": [
        {
          "internalType": "address",
          "name": "",
          "type": "address"
        }
      ],
      "stateMutability": "view",
      "type": "function"
    },
    {
      "inputs": [
        {
          "internalType": "uint256",
          "name": "",
          "type": "uint256"
        }
      ],
      "name": "assets",
      "outputs": [
        {
          "internalType": "bool",
          "name": "isApproved",
          "type": "bool"
        },
        {
          "internalType": "string",
          "name": "characterization",
          "type": "string"
        },
        {
          "internalType": "uint256",
          "name": "assetId",
          "type": "uint256"
        },
        {
          "internalType": "uint256",
          "name": "value",
          "type": "uint256"
        },
        {
          "internalType": "address",
          "name": "ownerOfAsset",
          "type": "address"
        },
        {
          "internalType": "uint256",
          "name": "annulmentTime",
          "type": "uint256"
        },
        {
          "internalType": "uint256",
          "name": "assetHash",
          "type": "uint256"
        },
        {
          "internalType": "bool",
          "name": "isClaimed",
          "type": "bool"
        }
      ],
      "stateMutability": "view",
      "type": "function"
    },
    {
      "inputs": [
        {
          "internalType": "uint256",
          "name": "",
          "type": "uint256"
        }
      ],
      "name": "assetsOfDisadvantageds",
      "outputs": [
        {
          "internalType": "bool",
          "name": "isApproved",
          "type": "bool"
        },
        {
          "internalType": "string",
          "name": "characterization",
          "type": "string"
        },
        {
          "internalType": "uint256",
          "name": "assetId",
          "type": "uint256"
        },
        {
          "internalType": "uint256",
          "name": "value",
          "type": "uint256"
        },
        {
          "internalType": "address",
          "name": "ownerOfAsset",
          "type": "address"
        },
        {
          "internalType": "uint256",
          "name": "annulmentTime",
          "type": "uint256"
        },
        {
          "internalType": "uint256",
          "name": "assetHash",
          "type": "uint256"
        },
        {
          "internalType": "bool",
          "name": "isClaimed",
          "type": "bool"
        }
      ],
      "stateMutability": "view",
      "type": "function"
    },
    {
      "inputs": [
        {
          "internalType": "address",
          "name": "",
          "type": "address"
        },
        {
          "internalType": "uint256",
          "name": "",
          "type": "uint256"
        }
      ],
      "name": "assetsOfOwner",
      "outputs": [
        {
          "internalType": "bool",
          "name": "isApproved",
          "type": "bool"
        },
        {
          "internalType": "string",
          "name": "characterization",
          "type": "string"
        },
        {
          "internalType": "uint256",
          "name": "assetId",
          "type": "uint256"
        },
        {
          "internalType": "uint256",
          "name": "value",
          "type": "uint256"
        },
        {
          "internalType": "address",
          "name": "ownerOfAsset",
          "type": "address"
        },
        {
          "internalType": "uint256",
          "name": "annulmentTime",
          "type": "uint256"
        },
        {
          "internalType": "uint256",
          "name": "assetHash",
          "type": "uint256"
        },
        {
          "internalType": "bool",
          "name": "isClaimed",
          "type": "bool"
        }
      ],
      "stateMutability": "view",
      "type": "function"
    },
    {
      "inputs": [
        {
          "internalType": "uint256",
          "name": "",
          "type": "uint256"
        }
      ],
      "name": "assetsOnValidation",
      "outputs": [
        {
          "internalType": "bool",
          "name": "isApproved",
          "type": "bool"
        },
        {
          "internalType": "string",
          "name": "characterization",
          "type": "string"
        },
        {
          "internalType": "uint256",
          "name": "assetId",
          "type": "uint256"
        },
        {
          "internalType": "uint256",
          "name": "value",
          "type": "uint256"
        },
        {
          "internalType": "address",
          "name": "ownerOfAsset",
          "type": "address"
        },
        {
          "internalType": "uint256",
          "name": "annulmentTime",
          "type": "uint256"
        },
        {
          "internalType": "uint256",
          "name": "assetHash",
          "type": "uint256"
        },
        {
          "internalType": "bool",
          "name": "isClaimed",
          "type": "bool"
        }
      ],
      "stateMutability": "view",
      "type": "function"
    },
    {
      "inputs": [
        {
          "internalType": "uint256",
          "name": "_assetId",
          "type": "uint256"
        }
      ],
      "name": "claimInsurance",
      "outputs": [],
      "stateMutability": "payable",
      "type": "function"
    },
    {
      "inputs": [],
      "name": "durationOfInsurance",
      "outputs": [
        {
          "internalType": "uint256",
          "name": "",
          "type": "uint256"
        }
      ],
      "stateMutability": "view",
      "type": "function"
    },
    {
      "inputs": [
        {
          "internalType": "uint256",
          "name": "_assetId",
          "type": "uint256"
        }
      ],
      "name": "getInfo",
      "outputs": [
        {
          "components": [
            {
              "internalType": "bool",
              "name": "isApproved",
              "type": "bool"
            },
            {
              "internalType": "string",
              "name": "characterization",
              "type": "string"
            },
            {
              "internalType": "uint256",
              "name": "assetId",
              "type": "uint256"
            },
            {
              "internalType": "uint256",
              "name": "value",
              "type": "uint256"
            },
            {
              "internalType": "address",
              "name": "ownerOfAsset",
              "type": "address"
            },
            {
              "internalType": "uint256",
              "name": "annulmentTime",
              "type": "uint256"
            },
            {
              "internalType": "uint256",
              "name": "assetHash",
              "type": "uint256"
            },
            {
              "internalType": "bool",
              "name": "isClaimed",
              "type": "bool"
            }
          ],
          "internalType": "struct Inshrance.Asset",
          "name": "",
          "type": "tuple"
        }
      ],
      "stateMutability": "view",
      "type": "function"
    },
    {
      "inputs": [
        {
          "internalType": "uint256",
          "name": "",
          "type": "uint256"
        }
      ],
      "name": "idToAsset",
      "outputs": [
        {
          "internalType": "bool",
          "name": "isApproved",
          "type": "bool"
        },
        {
          "internalType": "string",
          "name": "characterization",
          "type": "string"
        },
        {
          "internalType": "uint256",
          "name": "assetId",
          "type": "uint256"
        },
        {
          "internalType": "uint256",
          "name": "value",
          "type": "uint256"
        },
        {
          "internalType": "address",
          "name": "ownerOfAsset",
          "type": "address"
        },
        {
          "internalType": "uint256",
          "name": "annulmentTime",
          "type": "uint256"
        },
        {
          "internalType": "uint256",
          "name": "assetHash",
          "type": "uint256"
        },
        {
          "internalType": "bool",
          "name": "isClaimed",
          "type": "bool"
        }
      ],
      "stateMutability": "view",
      "type": "function"
    },
    {
      "inputs": [],
      "name": "insureAsset",
      "outputs": [],
      "stateMutability": "payable",
      "type": "function"
    },
    {
      "inputs": [],
      "name": "owner",
      "outputs": [
        {
          "internalType": "address",
          "name": "",
          "type": "address"
        }
      ],
      "stateMutability": "view",
      "type": "function"
    },
    {
      "inputs": [],
      "name": "poolBalance",
      "outputs": [
        {
          "internalType": "uint256",
          "name": "",
          "type": "uint256"
        }
      ],
      "stateMutability": "view",
      "type": "function"
    },
    {
      "inputs": [
        {
          "internalType": "uint256",
          "name": "_assetId",
          "type": "uint256"
        }
      ],
      "name": "prolongInsurance",
      "outputs": [],
      "stateMutability": "payable",
      "type": "function"
    },
    {
      "inputs": [],
      "name": "rateOfInsurance1",
      "outputs": [
        {
          "internalType": "uint256",
          "name": "",
          "type": "uint256"
        }
      ],
      "stateMutability": "view",
      "type": "function"
    },
    {
      "inputs": [],
      "name": "rateOfInsurance2",
      "outputs": [
        {
          "internalType": "uint256",
          "name": "",
          "type": "uint256"
        }
      ],
      "stateMutability": "view",
      "type": "function"
    },
    {
      "inputs": [],
      "name": "totalContributions",
      "outputs": [
        {
          "internalType": "uint256",
          "name": "",
          "type": "uint256"
        }
      ],
      "stateMutability": "view",
      "type": "function"
    },
    {
      "inputs": [
        {
          "internalType": "uint256",
          "name": "_amount",
          "type": "uint256"
        }
      ],
      "name": "withdraw",
      "outputs": [],
      "stateMutability": "payable",
      "type": "function"
    }
  ],
  "bytecode": "0x60806040526301e133806003556002600455600a60055534801561002257600080fd5b50600080546001600160a01b03191633179055611554806100446000396000f3fe6080604052600436106101145760003560e01c806385fd678c116100a0578063c688fca711610064578063c688fca7146102da578063cd7a6912146102fa578063cf35bdd01461031a578063d1ea99dd1461033a578063f85920d81461035057600080fd5b806385fd678c1461022057806389f74b661461026e5780638da5cb5b1461028457806396365d44146102a4578063a9265a12146102ba57600080fd5b806345b8e1d8116100e757806345b8e1d8146101bc578063481429e2146101c45780634c634463146101e4578063664b092b146101f75780636fa3e9271461020a57600080fd5b80631a3cd59a14610119578063266f43531461014f5780632e1a7d4d1461018357806337c0892314610198575b600080fd5b34801561012557600080fd5b50610139610134366004611123565b610363565b6040516101469190611189565b60405180910390f35b34801561015b57600080fd5b5061016f61016a366004611123565b61050b565b60405161014698979695949392919061120c565b610196610191366004611123565b6105fb565b005b3480156101a457600080fd5b506101ae60025481565b604051908152602001610146565b610196610662565b3480156101d057600080fd5b506101966101df36600461127c565b610bf1565b6101966101f2366004611123565b610c01565b61019661020536600461127c565b610c99565b34801561021657600080fd5b506101ae60055481565b34801561022c57600080fd5b5061025661023b366004611123565b6009602052600090815260409020546001600160a01b031681565b6040516001600160a01b039091168152602001610146565b34801561027a57600080fd5b506101ae60045481565b34801561029057600080fd5b50600054610256906001600160a01b031681565b3480156102b057600080fd5b506101ae60015481565b3480156102c657600080fd5b5061016f6102d5366004611340565b610e62565b3480156102e657600080fd5b5061016f6102f5366004611123565b610ea9565b34801561030657600080fd5b5061016f610315366004611123565b610ecf565b34801561032657600080fd5b5061016f610335366004611123565b610edf565b34801561034657600080fd5b506101ae60035481565b61019661035e366004611123565b610eef565b6103b860405180610100016040528060001515815260200160608152602001600081526020016000815260200160006001600160a01b0316815260200160008152602001600081526020016000151581525090565b60008281526009602052604090205482906001600160a01b031633146103f95760405162461bcd60e51b81526004016103f090611378565b60405180910390fd5b6000838152600a6020908152604080832081516101008101909252805460ff16151582526001810180549293919291840191610434906113c5565b80601f0160208091040260200160405190810160405280929190818152602001828054610460906113c5565b80156104ad5780601f10610482576101008083540402835291602001916104ad565b820191906000526020600020905b81548152906001019060200180831161049057829003601f168201915b5050509183525050600282015460208201526003820154604082015260048201546001600160a01b0316606082015260058201546080820152600682015460a082015260079091015460ff16151560c0909101529250505b50919050565b6007818154811061051b57600080fd5b60009182526020909120600890910201805460018201805460ff909216935090610544906113c5565b80601f0160208091040260200160405190810160405280929190818152602001828054610570906113c5565b80156105bd5780601f10610592576101008083540402835291602001916105bd565b820191906000526020600020905b8154815290600101906020018083116105a057829003601f168201915b50505060028401546003850154600486015460058701546006880154600790980154969793969295506001600160a01b039091169350919060ff1688565b6000546001600160a01b031633146106255760405162461bcd60e51b81526004016103f0906113fa565b600080546040516001600160a01b039091169183156108fc02918491818181858888f1935050505015801561065e573d6000803e3d6000fd5b5050565b6000546001600160a01b0316331461068c5760405162461bcd60e51b81526004016103f0906113fa565b60078054600091906106a090600190611460565b815481106106b0576106b0611477565b6000918252602091829020604080516101008101909152600890920201805460ff161515825260018101805492939192918401916106ed906113c5565b80601f0160208091040260200160405190810160405280929190818152602001828054610719906113c5565b80156107665780601f1061073b57610100808354040283529160200191610766565b820191906000526020600020905b81548152906001019060200180831161074957829003601f168201915b50505091835250506002820154602080830191909152600383015460408084019190915260048401546001600160a01b0316606084015260058401546080840152600684015460a084015260079093015460ff16151560c0928301528301519083015191519293507ff1f7237ada5dc19f1b3edc3901be72b8c922503837b1ee35c43c502031b4aee0926107fa929061148d565b60405180910390a1600180825260068054918201815560005281517ff652222313e28459528d920b65115c16c04f3efc82aaedc97be59f3f377c0d3f6008909202918201805460ff191691151591909117815560208084015180518594610887937ff652222313e28459528d920b65115c16c04f3efc82aaedc97be59f3f377c0d40909101920190610fd2565b50604082015160028201556060820151600382015560808201516004820180546001600160a01b0319166001600160a01b0390921691909117905560a0820151600582015560c082015160068083019190915560e0909201516007909101805460ff1916911515919091179055805461090290600190611460565b8154811061091257610912611477565b600091825260208083206040858101518552600a90925292206008919091029091018054825460ff191660ff9091161515178255600180820180549293929183019161095d906113c5565b610968929190611056565b50600282810154908201556003808301549082015560048083015481830180546001600160a01b039283166001600160a01b031991821617909155600580860154818601556006808701549086015560079586015495909401805460ff191660ff9096161515959095179094556080850151604080870151600090815260096020522080549095169116179092555490546060830151610a0891906114af565b610a1291906114ce565b60026000828254610a2391906114f0565b90915550506005546004546060830151610a3d91906114af565b610a4791906114ce565b60016000828254610a5891906114f0565b90915550506007805480610a6e57610a6e611508565b600082815260208120600860001990930192830201805460ff1916815590610a9960018301826110d1565b50600060028201819055600382018190556004820180546001600160a01b0319169055600582018190556006820155600701805460ff19169055905550565b815481529060010190602001808311610ad85750505091835250506002820154602080830191909152600383015460408084019190915260048401546001600160a01b0316606084015260058401546080840152600684015460a084015260079093015460ff16151560c0928301528301519083015191519293507fbac000d765407ab6d263b80d888a26cdc022210325740f0ff5afc7974214f82492610b7f929061148d565b60405180910390a180608001516001600160a01b03166108fc6005546004548460600151610bad91906114af565b610bb791906114ce565b6040518115909202916000818181858888f19350505050158015610bdf573d6000803e3d6000fd5b506007805480610a6e57610a6e611508565b610bfc838383610cbe565b505050565b60008181526009602052604090205481906001600160a01b03163314610c395760405162461bcd60e51b81526004016103f090611378565b6000828152600a602052604090206005810154421015610c5857600080fd5b346005546004548360030154610c6e91906114af565b610c7891906114ce565b14610c8257600080fd5b600354610c8f90426114f0565b6005909101555050565b600554600454610ca990836114af565b610cb391906114ce565b3414610cbe57600080fd5b600082823342600354610cd191906114f0565b6040805160208101959095528401929092526bffffffffffffffffffffffff19606091821b169083015260748201526094016040516020818303038152906040528051906020012060001c90506007604051806101000160405280600015158152602001868152602001858152602001848152602001336001600160a01b0316815260200142600354610d6491906114f0565b8152602080820185905260006040909201829052835460018082018655948352918190208351600890930201805460ff191692151592909217825582810151805193949293610dba938501929190910190610fd2565b5060408281015160028301556060830151600383015560808301516004830180546001600160a01b0319166001600160a01b0390921691909117905560a0830151600583015560c0830151600683015560e0909201516007909101805460ff1916911515919091179055517fd6ded1aaf0f5a00ede98b3b20843efe3a078bc3c7372036d902787717422647790610e54908690849061148d565b60405180910390a150505050565b600b6020528160005260406000208181548110610e7e57600080fd5b60009182526020909120600890910201805460018201805460ff9092169450919250610544906113c5565b600a602052600090815260409020805460018201805460ff9092169291610544906113c5565b6008818154811061051b57600080fd5b6006818154811061051b57600080fd5b60008181526009602052604090205481906001600160a01b03163314610f275760405162461bcd60e51b81526004016103f090611378565b6000828152600a60205260409020600781015460ff1615610f4757600080fd5b4281600501541015610f5857600080fd5b6005546004548260030154610f6d91906114af565b610f7791906114ce565b60016000828254610f889190611460565b909155505060078101805460ff191660011790556003810154604051339180156108fc02916000818181858888f19350505050158015610fcc573d6000803e3d6000fd5b50505050565b828054610fde906113c5565b90600052602060002090601f0160209004810192826110005760008555611046565b82601f1061101957805160ff1916838001178555611046565b82800160010185558215611046579182015b8281111561104657825182559160200191906001019061102b565b5061105292915061110e565b5090565b828054611062906113c5565b90600052602060002090601f0160209004810192826110845760008555611046565b82601f106110955780548555611046565b8280016001018555821561104657600052602060002091601f016020900482015b828111156110465782548255916001019190600101906110b6565b5080546110dd906113c5565b6000825580601f106110ed575050565b601f01602090049060005260206000209081019061110b919061110e565b50565b5b80821115611052576000815560010161110f565b60006020828403121561113557600080fd5b5035919050565b6000815180845260005b8181101561116257602081850181015186830182015201611146565b81811115611174576000602083870101525b50601f01601f19169290920160200192915050565b60208152815115156020820152600060208301516101008060408501526111b461012085018361113c565b9150604085015160608501526060850151608085015260018060a01b0360808601511660a085015260a085015160c085015260c085015160e085015260e08501516112028286018215159052565b5090949350505050565b60006101008a151583528060208401526112288184018b61113c565b6040840199909952505060608101959095526001600160a01b0393909316608085015260a084019190915260c0830152151560e09091015292915050565b634e487b7160e01b600052604160045260246000fd5b60008060006060848603121561129157600080fd5b833567ffffffffffffffff808211156112a957600080fd5b818601915086601f8301126112bd57600080fd5b8135818111156112cf576112cf611266565b604051601f8201601f19908116603f011681019083821181831017156112f7576112f7611266565b8160405282815289602084870101111561131057600080fd5b82602086016020830137600060208483010152809750505050505060208401359150604084013590509250925092565b6000806040838503121561135357600080fd5b82356001600160a01b038116811461136a57600080fd5b946020939093013593505050565b6020808252602d908201527f4f6e6c7920746865206173736574206f776e65722063616e20706572666f726d60408201526c103a3434b99030b1ba34b7b71760991b606082015260800190565b600181811c908216806113d957607f821691505b6020821081141561050557634e487b7160e01b600052602260045260246000fd5b60208082526030908201527f4f6e6c792074686520636f6e7472616374206f776e65722063616e207065726660408201526f37b936903a3434b99030b1ba34b7b71760811b606082015260800190565b634e487b7160e01b600052601160045260246000fd5b6000828210156114725761147261144a565b500390565b634e487b7160e01b600052603260045260246000fd5b6040815260006114a0604083018561113c565b90508260208301529392505050565b60008160001904831182151516156114c9576114c961144a565b500290565b6000826114eb57634e487b7160e01b600052601260045260246000fd5b500490565b600082198211156115035761150361144a565b500190565b634e487b7160e01b600052603160045260246000fdfea2646970667358221220ce53ce6fb318b0a5719adc273ce726160479609fcebc35b5197f6f82749f513b64736f6c63430008090033",
  "linkReferences": {},
  "deployedLinkReferences": {}
}